:1000000012C017C016C015C014C013C0A0C011C0C4
:1000100010C00FC00EC00DC00CC00BC00AC009C07C
:1000200008C007C006C011241FBECFEDCDBF02D04F
:10003000B2C0E6CFC098B89A90E000E011E0C0E00E
:10004000D0E0FF24F394933009F44EC028F49130AB
:1000500011F108F046C009C0953009F457C008F402
:100060004AC0973009F071C05EC0479ABA9AB99AEF
:10007000BB9ABC9ABD98F3BE89B7826089BF85B729
:100080008F7A85BF85B7806285BF789480E090E0E5
:1000900068D0182F41C0133010F4113031F4011121
:1000A00001C0C29AC39A11E004C0011101C0C298F4
:1000B000C398812F8250823028F4011101C0C19A67
:1000C000C49A04C0011101C0C198C498011132C082
:1000D000612F80E090E04DD0B898C09A92E001E0A6
:1000E00034C0B59B2BC031C0209709F01EC0B59914
:1000F00029C094E020C0B59903C0209729F115C00C
:10010000C098B89A97E0C6E9D0E01FC0B59906C07C
:10011000209709F00AC01F5F91E017C0612F80E0AF
:1001200090E027D00FC0209711F021970EC0B8980B
:10013000C09A08C095E0CFEFD1E007C093E0CAE0D5
:10014000D0E003C092E001C095E088957CCF1F927B
:100150000F920FB60F9211240F900FBE0F901F90A9
:100160001895E199FECF1FBA8EBBE09A99278DB3FF
:100170000895262FE199FECF1FBA8EBBE09A8150D9
:100180000DB2021639F01CBA2DBB0FB6F894E29AE4
:0A019000E19A0FBE0895F894FFCF26
:00000001FF
