:100000000EC015C014C013C012C0A2C010C00FC0D3
:100010000EC00DC00CC00BC00AC009C008C011241E
:100020001FBECFE5D1E0DEBFCDBF02D0B5C0E8CF67
:10003000C098B89A90E000E011E0C0E0D0E0FF2462
:10004000F394933009F451C028F4913011F108F081
:1000500049C009C0953009F45AC008F44DC0973022
:1000600009F074C061C0479ABA9AB99ABB9ABC9A0F
:10007000BD98F3BE89B7826089BF85B7877E85BF8B
:1000800085B7806285BF789480E090E06BD0182FB0
:1000900044C0143028F4113021F0133039F401C079
:1000A00011E0011101C0C29AC39804C0011101C03E
:1000B000C298C39A812F8250823028F4011101C066
:1000C000C19AC49804C0011101C0C198C49A011119
:1000D00032C0612F80E090E04DD0B898C09A92E095
:1000E00001E034C0B59B2BC031C0209709F01EC081
:1000F000B59929C094E020C0B59903C0209729F193
:1001000015C0C098B89A97E0C6E9D0E01FC0B5996D
:1001100006C0209709F00AC01F5F91E017C0612F49
:1001200080E090E027D00FC0209711F021970EC0FB
:10013000B898C09A08C095E0CFEFD1E007C093E02F
:10014000CAE0D0E003C092E001C095E0889579CF85
:100150001F920F920FB60F9211240F900FBE0F90A7
:100160001F901895E199FECF1FBA8EBBE09A992790
:100170008DB30895262FE199FECF1FBA8EBBE09A6A
:1001800081500DB2021639F01CBA2DBB0FB6F8948F
:0C019000E29AE19A0FBE0895F894FFCFA8
:00000001FF
